{
  "contractName": "Election",
  "abi": [
    {
      "constant": true,
      "inputs": [
        {
          "name": "",
          "type": "bytes32"
        }
      ],
      "name": "votesReceived",
      "outputs": [
        {
          "name": "",
          "type": "uint8"
        }
      ],
      "payable": false,
      "stateMutability": "view",
      "type": "function"
    },
    {
      "constant": true,
      "inputs": [
        {
          "name": "",
          "type": "uint256"
        }
      ],
      "name": "candidateList",
      "outputs": [
        {
          "name": "",
          "type": "bytes32"
        }
      ],
      "payable": false,
      "stateMutability": "view",
      "type": "function"
    },
    {
      "inputs": [
        {
          "name": "candidateNames",
          "type": "bytes32[]"
        }
      ],
      "payable": false,
      "stateMutability": "nonpayable",
      "type": "constructor"
    },
    {
      "constant": false,
      "inputs": [
        {
          "name": "candidate",
          "type": "bytes32"
        }
      ],
      "name": "getVoteCount",
      "outputs": [
        {
          "name": "",
          "type": "uint8"
        }
      ],
      "payable": false,
      "stateMutability": "nonpayable",
      "type": "function"
    },
    {
      "constant": false,
      "inputs": [
        {
          "name": "candidate",
          "type": "bytes32"
        }
      ],
      "name": "castVote",
      "outputs": [],
      "payable": false,
      "stateMutability": "nonpayable",
      "type": "function"
    },
    {
      "constant": false,
      "inputs": [
        {
          "name": "candidate",
          "type": "bytes32"
        }
      ],
      "name": "isCandidate",
      "outputs": [
        {
          "name": "",
          "type": "bool"
        }
      ],
      "payable": false,
      "stateMutability": "nonpayable",
      "type": "function"
    }
  ],
  "bytecode": "0x6060604052341561000f57600080fd5b6040516102f03803806102f0833981016040528080519091019050600081805161003d929160200190610044565b50506100ae565b828054828255906000526020600020908101928215610081579160200282015b828111156100815782518255602090920191600190910190610064565b5061008d929150610091565b5090565b6100ab91905b8082111561008d5760008155600101610097565b90565b610233806100bd6000396000f30060606040526004361061006c5763ffffffff7c01000000000000000000000000000000000000000000000000000000006000350416633efafb6e81146100715780637021939f14610089578063a1695993146100b5578063b13c744b146100cb578063b89694c6146100f3575b600080fd5b341561007c57600080fd5b61008760043561011d565b005b341561009457600080fd5b61009f60043561015a565b60405160ff909116815260200160405180910390f35b34156100c057600080fd5b61009f60043561016f565b34156100d657600080fd5b6100e160043561019b565b60405190815260200160405180910390f35b34156100fe57600080fd5b6101096004356101ba565b604051901515815260200160405180910390f35b610126816101ba565b151561013157600080fd5b6000908152600160208190526040909120805460ff19811660ff91821690930116919091179055565b60016020526000908152604090205460ff1681565b600061017a826101ba565b151561018557600080fd5b5060009081526001602052604090205460ff1690565b60008054829081106101a957fe5b600091825260209091200154905081565b6000805b6000548110156101fc5760008054849190839081106101d957fe5b60009182526020909120015414156101f45760019150610201565b6001016101be565b600091505b509190505600a165627a7a72305820615716de65deece135e050a65c0586adbd976a0ccf57017e314f5c7f92bf8bff0029",
  "source": "pragma solidity ^0.4.6;\r\n\r\ncontract Election {\r\n  // Declare public variables in the Election contract\r\n  bytes32[] public candidateList; // Array of names of candidates\r\n  mapping (bytes32 => uint8) public votesReceived; // Associative array of votes per candidate\r\n\r\n  // Election constructor, takes array of candidate names\r\n  function Election(bytes32[] candidateNames) {\r\n    candidateList = candidateNames;\r\n  }\r\n\r\n  // Get the vote count for a candidate\r\n  function getVoteCount(bytes32 candidate) returns (uint8) {\r\n    if (isCandidate(candidate) == false) throw;\r\n    return votesReceived[candidate];\r\n  }\r\n\r\n  // Cast a vote for a candidate\r\n  function castVote(bytes32 candidate) {\r\n    if (isCandidate(candidate) == false) throw;\r\n    votesReceived[candidate] += 1;\r\n  }\r\n\r\n  // Check if candidate is in candidateList\r\n  function isCandidate(bytes32 candidate) returns (bool) {\r\n    for(uint i = 0; i < candidateList.length; i++) {\r\n      if (candidateList[i] == candidate) {\r\n        return true;\r\n      }\r\n    }\r\n    return false;\r\n  }\r\n}\r\n",
  "sourcePath": "D:\\Noaman WorkSpace\\Block Chains\\Use Case app\\blockchainApp\\truffle\\contracts\\Election.sol",
  "compiler": {
    "name": "solc",
    "version": "0.4.21+commit.dfe3193c.Emscripten.clang"
  },
  "schemaVersion": "2.0.0",
  "updatedAt": "2018-04-18T10:13:15.007Z"
}